{
  "contractName": "Lottery",
  "abi": [
    {
      "inputs": [],
      "stateMutability": "nonpayable",
      "type": "constructor"
    },
    {
      "inputs": [],
      "name": "manager",
      "outputs": [
        {
          "internalType": "address",
          "name": "",
          "type": "address"
        }
      ],
      "stateMutability": "view",
      "type": "function",
      "constant": true
    },
    {
      "inputs": [
        {
          "internalType": "uint256",
          "name": "",
          "type": "uint256"
        }
      ],
      "name": "participants",
      "outputs": [
        {
          "internalType": "address payable",
          "name": "",
          "type": "address"
        }
      ],
      "stateMutability": "view",
      "type": "function",
      "constant": true
    },
    {
      "stateMutability": "payable",
      "type": "receive",
      "payable": true
    },
    {
      "inputs": [],
      "name": "getBalance",
      "outputs": [
        {
          "internalType": "uint256",
          "name": "",
          "type": "uint256"
        }
      ],
      "stateMutability": "view",
      "type": "function",
      "constant": true
    },
    {
      "inputs": [],
      "name": "selectWinner",
      "outputs": [],
      "stateMutability": "nonpayable",
      "type": "function"
    },
    {
      "inputs": [],
      "name": "getLotteryManagerAddress",
      "outputs": [
        {
          "internalType": "address",
          "name": "",
          "type": "address"
        }
      ],
      "stateMutability": "view",
      "type": "function",
      "constant": true
    }
  ],
  "bytecode": "0x608060405234801561001057600080fd5b50336000806101000a81548173ffffffffffffffffffffffffffffffffffffffff021916908373ffffffffffffffffffffffffffffffffffffffff160217905550610888806100606000396000f3fe60806040526004361061004e5760003560e01c806312065fe0146100d157806333a99e04146100fc57806335c1d34914610113578063481c6a7514610150578063ce867ff71461017b576100cc565b366100cc57671bc16d674ec80000341461006757600080fd5b6001339080600181540180825580915050600190039060005260206000200160009091909190916101000a81548173ffffffffffffffffffffffffffffffffffffffff021916908373ffffffffffffffffffffffffffffffffffffffff160217905550005b600080fd5b3480156100dd57600080fd5b506100e66101a6565b6040516100f391906105c2565b60405180910390f35b34801561010857600080fd5b5061011161023e565b005b34801561011f57600080fd5b5061013a6004803603810190610135919061060e565b61043c565b604051610147919061067c565b60405180910390f35b34801561015c57600080fd5b5061016561047b565b60405161017291906106b8565b60405180910390f35b34801561018757600080fd5b5061019061049f565b60405161019d91906106b8565b60405180910390f35b60008060009054906101000a900473ffffffffffffffffffffffffffffffffffffffff1673ffffffffffffffffffffffffffffffffffffffff163373ffffffffffffffffffffffffffffffffffffffff161461020157600080fd5b60008054906101000a900473ffffffffffffffffffffffffffffffffffffffff1673ffffffffffffffffffffffffffffffffffffffff1631905090565b60008054906101000a900473ffffffffffffffffffffffffffffffffffffffff1673ffffffffffffffffffffffffffffffffffffffff163373ffffffffffffffffffffffffffffffffffffffff161461029657600080fd5b600360018054905010156102a957600080fd5b60006001805490506102b96104c8565b6102c39190610702565b90506000600182815481106102db576102da610733565b5b9060005260206000200160009054906101000a900473ffffffffffffffffffffffffffffffffffffffff1690508073ffffffffffffffffffffffffffffffffffffffff166108fc670de0b6b3a76400006103336101a6565b61033d9190610791565b9081150290604051600060405180830381858888f19350505050158015610368573d6000803e3d6000fd5b5060008054906101000a900473ffffffffffffffffffffffffffffffffffffffff1673ffffffffffffffffffffffffffffffffffffffff166108fc670de0b6b3a76400009081150290604051600060405180830381858888f193505050501580156103d7573d6000803e3d6000fd5b50600067ffffffffffffffff8111156103f3576103f26107c5565b5b6040519080825280602002602001820160405280156104215781602001602082028036833780820191505090505b5060019080519060200190610437929190610502565b505050565b6001818154811061044c57600080fd5b906000526020600020016000915054906101000a900473ffffffffffffffffffffffffffffffffffffffff1681565b60008054906101000a900473ffffffffffffffffffffffffffffffffffffffff1681565b60008060009054906101000a900473ffffffffffffffffffffffffffffffffffffffff16905090565b600044426001805490506040516020016104e493929190610815565b6040516020818303038152906040528051906020012060001c905090565b82805482825590600052602060002090810192821561057b579160200282015b8281111561057a5782518260006101000a81548173ffffffffffffffffffffffffffffffffffffffff021916908373ffffffffffffffffffffffffffffffffffffffff16021790555091602001919060010190610522565b5b509050610588919061058c565b5090565b5b808211156105a557600081600090555060010161058d565b5090565b6000819050919050565b6105bc816105a9565b82525050565b60006020820190506105d760008301846105b3565b92915050565b600080fd5b6105eb816105a9565b81146105f657600080fd5b50565b600081359050610608816105e2565b92915050565b600060208284031215610624576106236105dd565b5b6000610632848285016105f9565b91505092915050565b600073ffffffffffffffffffffffffffffffffffffffff82169050919050565b60006106668261063b565b9050919050565b6106768161065b565b82525050565b6000602082019050610691600083018461066d565b92915050565b60006106a28261063b565b9050919050565b6106b281610697565b82525050565b60006020820190506106cd60008301846106a9565b92915050565b7f4e487b7100000000000000000000000000000000000000000000000000000000600052601260045260246000fd5b600061070d826105a9565b9150610718836105a9565b925082610728576107276106d3565b5b828206905092915050565b7f4e487b7100000000000000000000000000000000000000000000000000000000600052603260045260246000fd5b7f4e487b7100000000000000000000000000000000000000000000000000000000600052601160045260246000fd5b600061079c826105a9565b91506107a7836105a9565b9250828210156107ba576107b9610762565b5b828203905092915050565b7f4e487b7100000000000000000000000000000000000000000000000000000000600052604160045260246000fd5b6000819050919050565b61080f61080a826105a9565b6107f4565b82525050565b600061082182866107fe565b60208201915061083182856107fe565b60208201915061084182846107fe565b60208201915081905094935050505056fea2646970667358221220beca9c164b439174d601100ab4008d11575a2cd3a06387c371d93b5ba1c879d864736f6c634300080b0033",
  "immutableReferences": {},
  "source": "// SPDX-License-Identifier: MIT\r\npragma solidity 0.8.11;\r\n\r\ncontract Lottery{\r\n    address  public manager;\r\n    address payable[] public participants;\r\n\r\n    constructor(){\r\n        manager = msg.sender;//Global variable to pass the constract deployer hash address\r\n    }\r\n\r\n    receive() external payable{\r\n        require(msg.value == 2 ether);\r\n        participants.push(payable(msg.sender));//It'll transfer the ETH\r\n    }\r\n\r\n    function getBalance() public view returns(uint){\r\n        require(msg.sender == manager);\r\n        return address(manager).balance;\r\n    }\r\n\r\n    function randomParticipant() private view returns(uint){\r\n        return uint(keccak256(abi.encodePacked(block.difficulty,block.timestamp,participants.length)));\r\n    }\r\n\r\n    function selectWinner() public /*returns(address)*/{\r\n        require(msg.sender == manager);\r\n        require(participants.length >= 3);\r\n        uint index = randomParticipant() % participants.length;\r\n        address payable winner;\r\n        winner = participants[index];\r\n        winner.transfer(getBalance() - 1 ether);\r\n        payable(manager).transfer(1 ether);\r\n        participants = new address payable[](0);//Restting the dynamic array for next lottery\r\n        // return winner;\r\n    }\r\n\r\n    function getLotteryManagerAddress() public view returns(address){\r\n        return address(manager);\r\n    }\r\n}",
  "sourcePath": "C:\\xampp\\htdocs\\Etherium\\web\\frontend\\contracts\\Lottery.sol",
  "compiler": {
    "name": "solc",
    "version": "0.8.11+commit.d7f03943.Emscripten.clang"
  },
  "schemaVersion": "3.4.4",
  "updatedAt": "2022-01-15T04:54:33.213Z",
  "networkType": "ethereum",
  "devdoc": {
    "kind": "dev",
    "methods": {},
    "version": 1
  },
  "userdoc": {
    "kind": "user",
    "methods": {},
    "version": 1
  }
}