{
  "contractName": "Lottery",
  "abi": [
    {
      "inputs": [],
      "stateMutability": "nonpayable",
      "type": "constructor"
    },
    {
      "inputs": [],
      "name": "manager",
      "outputs": [
        {
          "internalType": "address",
          "name": "",
          "type": "address"
        }
      ],
      "stateMutability": "view",
      "type": "function",
      "constant": true
    },
    {
      "inputs": [
        {
          "internalType": "uint256",
          "name": "",
          "type": "uint256"
        }
      ],
      "name": "participants",
      "outputs": [
        {
          "internalType": "address payable",
          "name": "",
          "type": "address"
        }
      ],
      "stateMutability": "view",
      "type": "function",
      "constant": true
    },
    {
      "stateMutability": "payable",
      "type": "receive",
      "payable": true
    },
    {
      "inputs": [],
      "name": "getBalance",
      "outputs": [
        {
          "internalType": "uint256",
          "name": "",
          "type": "uint256"
        }
      ],
      "stateMutability": "view",
      "type": "function",
      "constant": true
    },
    {
      "inputs": [],
      "name": "selectWinner",
      "outputs": [
        {
          "internalType": "address",
          "name": "",
          "type": "address"
        }
      ],
      "stateMutability": "nonpayable",
      "type": "function"
    },
    {
      "inputs": [],
      "name": "getLotteryManagerAddress",
      "outputs": [
        {
          "internalType": "address",
          "name": "",
          "type": "address"
        }
      ],
      "stateMutability": "view",
      "type": "function",
      "constant": true
    },
    {
      "inputs": [],
      "name": "getContractAddress",
      "outputs": [
        {
          "internalType": "address",
          "name": "",
          "type": "address"
        }
      ],
      "stateMutability": "view",
      "type": "function",
      "constant": true
    },
    {
      "inputs": [],
      "name": "totalParticipants",
      "outputs": [
        {
          "internalType": "uint256",
          "name": "",
          "type": "uint256"
        }
      ],
      "stateMutability": "view",
      "type": "function",
      "constant": true
    }
  ],
  "bytecode": "0x608060405234801561001057600080fd5b50336000806101000a81548173ffffffffffffffffffffffffffffffffffffffff021916908373ffffffffffffffffffffffffffffffffffffffff1602179055506108a5806100606000396000f3fe6080604052600436106100745760003560e01c806335c1d3491161004e57806335c1d34914610179578063481c6a75146101b6578063a26dbf26146101e1578063ce867ff71461020c576100f3565b806312065fe0146100f857806332a2c5d01461012357806333a99e041461014e576100f3565b366100f357670de0b6b3a764000034101561008e57600080fd5b6001339080600181540180825580915050600190039060005260206000200160009091909190916101000a81548173ffffffffffffffffffffffffffffffffffffffff021916908373ffffffffffffffffffffffffffffffffffffffff160217905550005b600080fd5b34801561010457600080fd5b5061010d610237565b60405161011a91906105df565b60405180910390f35b34801561012f57600080fd5b5061013861023f565b604051610145919061063b565b60405180910390f35b34801561015a57600080fd5b50610163610247565b604051610170919061063b565b60405180910390f35b34801561018557600080fd5b506101a0600480360381019061019b9190610687565b61044c565b6040516101ad91906106d5565b60405180910390f35b3480156101c257600080fd5b506101cb61048b565b6040516101d8919061063b565b60405180910390f35b3480156101ed57600080fd5b506101f66104af565b60405161020391906105df565b60405180910390f35b34801561021857600080fd5b506102216104bc565b60405161022e919061063b565b60405180910390f35b600047905090565b600030905090565b60008060009054906101000a900473ffffffffffffffffffffffffffffffffffffffff1673ffffffffffffffffffffffffffffffffffffffff163373ffffffffffffffffffffffffffffffffffffffff16146102a257600080fd5b600360018054905010156102b557600080fd5b60006001805490506102c56104e5565b6102cf919061071f565b90506000600182815481106102e7576102e6610750565b5b9060005260206000200160009054906101000a900473ffffffffffffffffffffffffffffffffffffffff1690508073ffffffffffffffffffffffffffffffffffffffff166108fc670de0b6b3a764000061033f610237565b61034991906107ae565b9081150290604051600060405180830381858888f19350505050158015610374573d6000803e3d6000fd5b5060008054906101000a900473ffffffffffffffffffffffffffffffffffffffff1673ffffffffffffffffffffffffffffffffffffffff166108fc670de0b6b3a76400009081150290604051600060405180830381858888f193505050501580156103e3573d6000803e3d6000fd5b50600067ffffffffffffffff8111156103ff576103fe6107e2565b5b60405190808252806020026020018201604052801561042d5781602001602082028036833780820191505090505b506001908051906020019061044392919061051f565b50809250505090565b6001818154811061045c57600080fd5b906000526020600020016000915054906101000a900473ffffffffffffffffffffffffffffffffffffffff1681565b60008054906101000a900473ffffffffffffffffffffffffffffffffffffffff1681565b6000600180549050905090565b60008060009054906101000a900473ffffffffffffffffffffffffffffffffffffffff16905090565b6000444260018054905060405160200161050193929190610832565b6040516020818303038152906040528051906020012060001c905090565b828054828255906000526020600020908101928215610598579160200282015b828111156105975782518260006101000a81548173ffffffffffffffffffffffffffffffffffffffff021916908373ffffffffffffffffffffffffffffffffffffffff1602179055509160200191906001019061053f565b5b5090506105a591906105a9565b5090565b5b808211156105c25760008160009055506001016105aa565b5090565b6000819050919050565b6105d9816105c6565b82525050565b60006020820190506105f460008301846105d0565b92915050565b600073ffffffffffffffffffffffffffffffffffffffff82169050919050565b6000610625826105fa565b9050919050565b6106358161061a565b82525050565b6000602082019050610650600083018461062c565b92915050565b600080fd5b610664816105c6565b811461066f57600080fd5b50565b6000813590506106818161065b565b92915050565b60006020828403121561069d5761069c610656565b5b60006106ab84828501610672565b91505092915050565b60006106bf826105fa565b9050919050565b6106cf816106b4565b82525050565b60006020820190506106ea60008301846106c6565b92915050565b7f4e487b7100000000000000000000000000000000000000000000000000000000600052601260045260246000fd5b600061072a826105c6565b9150610735836105c6565b925082610745576107446106f0565b5b828206905092915050565b7f4e487b7100000000000000000000000000000000000000000000000000000000600052603260045260246000fd5b7f4e487b7100000000000000000000000000000000000000000000000000000000600052601160045260246000fd5b60006107b9826105c6565b91506107c4836105c6565b9250828210156107d7576107d661077f565b5b828203905092915050565b7f4e487b7100000000000000000000000000000000000000000000000000000000600052604160045260246000fd5b6000819050919050565b61082c610827826105c6565b610811565b82525050565b600061083e828661081b565b60208201915061084e828561081b565b60208201915061085e828461081b565b60208201915081905094935050505056fea26469706673582212201923c8788a434db84b03d08c09304cb11fb5fac8ef7f42738252d406745c6d4a64736f6c634300080b0033",
  "immutableReferences": {},
  "source": "// SPDX-License-Identifier: MIT\r\npragma solidity 0.8.11;\r\n\r\ncontract Lottery{\r\n    address  public manager;\r\n    address payable[] public participants;\r\n\r\n    constructor(){\r\n        manager = msg.sender;//Global variable to pass the constract deployer hash address\r\n    }\r\n\r\n    receive() external payable{\r\n        require(msg.value >= 1 ether);\r\n        participants.push(payable(msg.sender));//It'll transfer the ETH\r\n    }\r\n\r\n    function getBalance() public view returns(uint){\r\n        // require(msg.sender == manager);\r\n        return address(this).balance;\r\n    }\r\n\r\n    function randomParticipant() private view returns(uint){\r\n        return uint(keccak256(abi.encodePacked(block.difficulty,block.timestamp,participants.length)));\r\n    }\r\n\r\n    function selectWinner() public returns(address){\r\n        require(msg.sender == manager);\r\n        require(participants.length >= 3);\r\n        uint index = randomParticipant() % participants.length;\r\n        address payable winner;\r\n        winner = participants[index];\r\n        winner.transfer(getBalance() - 1 ether);\r\n        payable(manager).transfer(1 ether);\r\n        participants = new address payable[](0);//Restting the dynamic array for next lottery\r\n        return winner;\r\n    }\r\n\r\n    function getLotteryManagerAddress() public view returns(address){\r\n        return address(manager);\r\n    }\r\n\r\n    function getContractAddress() public view returns(address){\r\n        return address(this);\r\n    }\r\n\r\n    function totalParticipants() public view returns(uint){\r\n        return participants.length;\r\n    }\r\n}",
  "sourcePath": "C:\\xampp\\htdocs\\Etherium\\web\\frontend\\contracts\\Lottery.sol",
  "compiler": {
    "name": "solc",
    "version": "0.8.11+commit.d7f03943.Emscripten.clang"
  },
  "schemaVersion": "3.4.4",
  "updatedAt": "2022-01-31T15:11:02.803Z",
  "networkType": "ethereum",
  "devdoc": {
    "kind": "dev",
    "methods": {},
    "version": 1
  },
  "userdoc": {
    "kind": "user",
    "methods": {},
    "version": 1
  }
}