{
  "contractName": "Lottery",
  "abi": [
    {
      "inputs": [],
      "stateMutability": "nonpayable",
      "type": "constructor"
    },
    {
      "inputs": [],
      "name": "manager",
      "outputs": [
        {
          "internalType": "address",
          "name": "",
          "type": "address"
        }
      ],
      "stateMutability": "view",
      "type": "function",
      "constant": true
    },
    {
      "inputs": [
        {
          "internalType": "uint256",
          "name": "",
          "type": "uint256"
        }
      ],
      "name": "participants",
      "outputs": [
        {
          "internalType": "address payable",
          "name": "",
          "type": "address"
        }
      ],
      "stateMutability": "view",
      "type": "function",
      "constant": true
    },
    {
      "stateMutability": "payable",
      "type": "receive",
      "payable": true
    },
    {
      "inputs": [],
      "name": "getBalance",
      "outputs": [
        {
          "internalType": "uint256",
          "name": "",
          "type": "uint256"
        }
      ],
      "stateMutability": "view",
      "type": "function",
      "constant": true
    },
    {
      "inputs": [],
      "name": "selectWinner",
      "outputs": [],
      "stateMutability": "nonpayable",
      "type": "function"
    }
  ],
  "bytecode": "0x608060405234801561001057600080fd5b50336000806101000a81548173ffffffffffffffffffffffffffffffffffffffff021916908373ffffffffffffffffffffffffffffffffffffffff1602179055506107f2806100606000396000f3fe6080604052600436106100435760003560e01c806312065fe0146100c657806333a99e04146100f157806335c1d34914610108578063481c6a7514610145576100c1565b366100c157671bc16d674ec80000341461005c57600080fd5b6001339080600181540180825580915050600190039060005260206000200160009091909190916101000a81548173ffffffffffffffffffffffffffffffffffffffff021916908373ffffffffffffffffffffffffffffffffffffffff160217905550005b600080fd5b3480156100d257600080fd5b506100db610170565b6040516100e8919061052c565b60405180910390f35b3480156100fd57600080fd5b506101066101d1565b005b34801561011457600080fd5b5061012f600480360381019061012a9190610578565b6103cf565b60405161013c91906105e6565b60405180910390f35b34801561015157600080fd5b5061015a61040e565b6040516101679190610622565b60405180910390f35b60008060009054906101000a900473ffffffffffffffffffffffffffffffffffffffff1673ffffffffffffffffffffffffffffffffffffffff163373ffffffffffffffffffffffffffffffffffffffff16146101cb57600080fd5b47905090565b60008054906101000a900473ffffffffffffffffffffffffffffffffffffffff1673ffffffffffffffffffffffffffffffffffffffff163373ffffffffffffffffffffffffffffffffffffffff161461022957600080fd5b6003600180549050101561023c57600080fd5b600060018054905061024c610432565b610256919061066c565b905060006001828154811061026e5761026d61069d565b5b9060005260206000200160009054906101000a900473ffffffffffffffffffffffffffffffffffffffff1690508073ffffffffffffffffffffffffffffffffffffffff166108fc670de0b6b3a76400006102c6610170565b6102d091906106fb565b9081150290604051600060405180830381858888f193505050501580156102fb573d6000803e3d6000fd5b5060008054906101000a900473ffffffffffffffffffffffffffffffffffffffff1673ffffffffffffffffffffffffffffffffffffffff166108fc670de0b6b3a76400009081150290604051600060405180830381858888f1935050505015801561036a573d6000803e3d6000fd5b50600067ffffffffffffffff8111156103865761038561072f565b5b6040519080825280602002602001820160405280156103b45781602001602082028036833780820191505090505b50600190805190602001906103ca92919061046c565b505050565b600181815481106103df57600080fd5b906000526020600020016000915054906101000a900473ffffffffffffffffffffffffffffffffffffffff1681565b60008054906101000a900473ffffffffffffffffffffffffffffffffffffffff1681565b6000444260018054905060405160200161044e9392919061077f565b6040516020818303038152906040528051906020012060001c905090565b8280548282559060005260206000209081019282156104e5579160200282015b828111156104e45782518260006101000a81548173ffffffffffffffffffffffffffffffffffffffff021916908373ffffffffffffffffffffffffffffffffffffffff1602179055509160200191906001019061048c565b5b5090506104f291906104f6565b5090565b5b8082111561050f5760008160009055506001016104f7565b5090565b6000819050919050565b61052681610513565b82525050565b6000602082019050610541600083018461051d565b92915050565b600080fd5b61055581610513565b811461056057600080fd5b50565b6000813590506105728161054c565b92915050565b60006020828403121561058e5761058d610547565b5b600061059c84828501610563565b91505092915050565b600073ffffffffffffffffffffffffffffffffffffffff82169050919050565b60006105d0826105a5565b9050919050565b6105e0816105c5565b82525050565b60006020820190506105fb60008301846105d7565b92915050565b600061060c826105a5565b9050919050565b61061c81610601565b82525050565b60006020820190506106376000830184610613565b92915050565b7f4e487b7100000000000000000000000000000000000000000000000000000000600052601260045260246000fd5b600061067782610513565b915061068283610513565b9250826106925761069161063d565b5b828206905092915050565b7f4e487b7100000000000000000000000000000000000000000000000000000000600052603260045260246000fd5b7f4e487b7100000000000000000000000000000000000000000000000000000000600052601160045260246000fd5b600061070682610513565b915061071183610513565b925082821015610724576107236106cc565b5b828203905092915050565b7f4e487b7100000000000000000000000000000000000000000000000000000000600052604160045260246000fd5b6000819050919050565b61077961077482610513565b61075e565b82525050565b600061078b8286610768565b60208201915061079b8285610768565b6020820191506107ab8284610768565b60208201915081905094935050505056fea2646970667358221220ad1a82f250b7a5bcbed449d244f649b4a38ba352867416ee7683a26e644471cb64736f6c634300080b0033",
  "immutableReferences": {},
  "source": "// SPDX-License-Identifier: MIT\r\npragma solidity 0.8.11;\r\n\r\ncontract Lottery{\r\n    address  public manager;\r\n    address payable[] public participants;\r\n\r\n    constructor(){\r\n        manager = msg.sender;//Global variable to pass the constract deployer hash address\r\n    }\r\n\r\n    receive() external payable{\r\n        require(msg.value == 2 ether);\r\n        participants.push(payable(msg.sender));//It'll transfer the ETH\r\n    }\r\n\r\n    function getBalance() public view returns(uint){\r\n        require(msg.sender == manager);\r\n        return address(this).balance;\r\n    }\r\n\r\n    function randomParticipant() private view returns(uint){\r\n        return uint(keccak256(abi.encodePacked(block.difficulty,block.timestamp,participants.length)));\r\n    }\r\n\r\n    function selectWinner() public /*returns(address)*/{\r\n        require(msg.sender == manager);\r\n        require(participants.length >= 3);\r\n        uint index = randomParticipant() % participants.length;\r\n        address payable winner;\r\n        winner = participants[index];\r\n        winner.transfer(getBalance() - 1 ether);\r\n        payable(manager).transfer(1 ether);\r\n        participants = new address payable[](0);//Restting the dynamic array for next lottery\r\n        // return winner;\r\n    }\r\n}",
  "sourcePath": "C:\\xampp\\htdocs\\Etherium\\web\\frontend\\contracts\\Lottery.sol",
  "compiler": {
    "name": "solc",
    "version": "0.8.11+commit.d7f03943.Emscripten.clang"
  },
  "schemaVersion": "3.4.4",
  "updatedAt": "2022-01-12T17:35:56.328Z",
  "networkType": "ethereum",
  "devdoc": {
    "kind": "dev",
    "methods": {},
    "version": 1
  },
  "userdoc": {
    "kind": "user",
    "methods": {},
    "version": 1
  }
}